:020000040800F2
:1000000068070020CD010008252C00081D2C0008E1
:10001000212C0008ED0B00085D2D000800000000F9
:100020000000000000000000000000002D2C00086F
:10003000F10B000800000000292C0008312C0008FA
:10004000E7010008E7010008E7010008E7010008F0
:10005000E7010008E7010008E7010008E7010008E0
:10006000E7010008E7010008E7010008E7010008D0
:10007000E7010008E7010008E7010008E7010008C0
:10008000E7010008E7010008DD0A0008E7010008B1
:10009000E7010008E7010008E7010008E7010008A0
:1000A000E7010008E7010008E7010008E701000890
:1000B000392C0008E701000800000000E7010008F3
:1000C000E70100080000000000000000E701000850
:1000D00000000000512D0008E701000800000000AA
:1000E000E7010008E7010008E701000800F002F856
:1000F00000F05DF814A696E8000CB244B344DA456B
:1001000001D100F054F8BAE80F000FA696E83000CD
:10011000A5EB040504EB0607AAEB0704A7F101070A
:100120004FEA15154FEA3414A4F10104AC4201D38F
:1001300000F03DF813F0010F18BFFB1A43F0010364
:1001400000F001F8DBE71847CC410000EC4100006B
:10015000103A24BF78C878C1FAD8520724BF30C8F3
:1001600030C144BF04680C60704700007047000055
:100170000023002400250026103A28BF78C1FBD8B0
:10018000520728BF30C148BF0B607047662904F092
:100190004F80002070471FB500F02AFB04000020AC
:1001A000002103F04BFEE0601FBD10B510BD00F054
:1001B0001FFC1146FFF7EFFF03F0E0F800F03DFCF5
:1001C00003B4FFF7F2FF03BC00F080FC094880474E
:1001D00009480047FEE7FEE7FEE7FEE7FEE7FEE729
:1001E000FEE7FEE7FEE7FEE704480549054A064B41
:1001F00070470000352C0008ED0000086801002061
:100200006807002068030020680300200FB41CB5B5
:10021000074B06AA7B4469460090059800F0CFFA88
:100220000020694600F0DEFA1CBC5DF814FB0000FB
:10023000CD0500002DE9F0474FF0000A894604463D
:10024000C0F820A02046E1688847002876D02528FD
:1002500006D0D4E901219047206A401C2062F1E7D2
:10026000E168204600258847C4F81CA00646002700
:10027000C4F818A02A2E09D0304603F0D7FD38B3B1
:1002800004EB8708303EC8F8186019E059F8041BE1
:10029000204604EB87029161E1688847012F0646FA
:1002A00018D1E069002820DA25F020051DE0D8F8F3
:1002B000180000EB800006EB40003038C8F818004A
:1002C0002046E1688847064603F0B0FD0028EED1DD
:1002D000012F0AD02E2E08D12046E16888477F1CC6
:1002E0000646022F45F02005C4DBA069002803DA8A
:1002F000404245F00105A061E80701D025F0100556
:10030000B6B1A6F14100192802D8203645F400659F
:100310004A463146204625604D46FFF737FF58B123
:10032000012806D0ED1D25F0070000F1080989E736
:1003300004E005F1040985E730468AE7206ABDE854
:10034000F0874FF0000200B51346944696462039D8
:1003500022BFA0E80C50A0E80C50B1F12001BFF47E
:10036000F7AF090728BFA0E80C5048BF0CC05DF8E4
:1003700004EB890028BF40F8042B08BF704748BF32
:1003800020F8022B11F0804F18BF00F8012B7047A6
:100390007047704770472DE9FF4F0C461E464FF0DF
:1003A000FF378BB0D2E90001DDF860800A908A4601
:1003B000C1F30A5505B93D46002108464FF000003B
:1003C000BAF1000F00F4400005DA00EB80004FF4B2
:1003D000400101EA50004FEA9059B9F1010F00DDE8
:1003E000B9460A9850EA4A000ED044F61050A5F2D9
:1003F000FF3545432F14B8F1000F1ED07542291E5A
:100400001EDDC9F100021CE0B8F1010F4FF0000041
:1004100001D0302103E0F24305E02154401CB042FA
:10042000FBDB30460022002121540B99C1F80880E3
:10043000C1E900200FB0BDE8F08FBD1B6D1CDEE7E9
:100440004A4600DA694206A800F05CFA06AB93E877
:10045000070003AB83E8070050460A9903F00AF946
:100460008DE80700A0F500501F3800900398002D7C
:100470000ADD42F21F014A460844002303A9039003
:10048000684603F073FB09E0A0F500504A461F38A8
:10049000002303A90390684603F07DFB8DE8070065
:1004A0000004000C03D04FF0FF30410800E010467C
:1004B000B8F1000F03D00022009215461EE0751E11
:1004C00005D400F099F9303262556D1EF9D5B34666
:1004D0000122084302D000227F1C04E0207830284B
:1004E00001D100227F1E002A099784D01DE0112D22
:1004F00007DA00F081F9303262556D1C50EA0102D2
:10050000F5D1084302D00098C8B10EE00021681E62
:1005100005E0235C625C63542254401E491C814206
:10052000F7DBAB46A81B401E0990002004F80B0027
:100530000B98099AC0F80880C0E9002B7AE71126C9
:100540004FF0000857E72DE9F04F88460446D21DCA
:1005500022F0070191B0D1E90001CDE90A0103F0D1
:1005600051FC02460B98C00F01D02D2007E02068F7
:10057000810701D52B2002E0202101EAC000032AD7
:10058000099001D0072A05DB03464146204600F0CA
:1005900079F90BE12078800601D5E06900E00620BA
:1005A000B8F1650F814606D0B8F1660F18D0B8F1E2
:1005B000670F70D131E00020B9F1110F009001DB1D
:1005C000112301E009F101030AAA01A90CA8FFF710
:1005D000E2FEDDE90C70002609F10105834647E0E3
:1005E00001204B4600904FF000470AAA01A90CA831
:1005F000FFF7D1FEDDE90DB00C995D46002610B97C
:1006000009F101000D18B9EB050003D4C0F1FF3664
:1006100009F10105A5EB09002BE0B9F1010F01DAA1
:100620004FF001090020B9F1110F0090484601DD9B
:10063000112300E003460AAA01A90CA8FFF7ABFEAC
:10064000DDE90C704D4600268346207800070AD469
:10065000AB4500DA5D4601A8012D04DD411911F812
:10066000011C302907D04F4502DA17F1040F04DAD4
:10067000012082460FE06D1EEEE7002F02DCED1B2D
:100680003E4403E0781CA84200DD7D1CB81B00F14D
:10069000010A4FF000472078000703D4AA4501DB88
:1006A0004FF0FF3A0021B7F1004F0DF143088DF8EC
:1006B000431024D002202B23002F01DA7F422D2368
:1006C0000A21021EA0F1010000DC5FB197FBF1FCE2
:1006D00097FBF1F201FB1C7C17460CF1300C08F87B
:1006E00001CDEEE7A8F1010003702188090501D5CD
:1006F000452100E06521A0F1010800F8011C0998DE
:100700000FA9A1EB0807FF1D00B10120411901EB62
:10071000EA70A1693844081A401EA0612078C0061A
:1007200002D42046AFF30080099828B1D4E9012112
:100730009047206A401C20622078C00622D52046BF
:10074000AFF300801EE0002E04DBB34502DD01A8FC
:10075000805D00E03020D4E901219047206A401CF0
:100760002062761CAAF101005FEA000A0AD100F0BB
:100770003FF8C0680168405CD4E901219047206AD5
:10078000401C2062281EA5F10105DCDC07E0D4E94D
:10079000012118F8010B9047206A401C2062381E86
:1007A000A7F10107F3DC2046AFF30080032011B06E
:1007B00041E6000001694A1C02610878704700B5F3
:1007C0008FB0CDE901310021059105497944CDE98A
:1007D000031011466846FFF72DFD0FB000BD000065
:1007E000E5FFFFFF0A6802F8010B0A60704700008E
:1007F000004870473800002030B5B0F10A0271F1AE
:1008000000034FEA900E4EEA817EB0EB0E0061EBE2
:1008100091014FEA101E4EEA017E10EB0E0041EBF3
:1008200011114FEA102E4EEA016E10EB0E0041EB53
:1008300011214FEA104E4EEA014E10EB0E0041EB33
:100840001141401841F100014FEAD00040EA4170E7
:100850004FEAD1014FEA810444EA907410EB80051D
:1008600044EB01046D1944EB0404521BA3414FF007
:10087000000348BF0A3200D530BD401C41F10001E1
:1008800030BD00002DE9F0411F46044603260168F3
:10089000072A01F4006004DB08B116A505E016A5DF
:1008A00003E008B115A500E015A521F010002060B7
:1008B000A069C01EA0610FB1401EA0612046AFF329
:1008C00000804FB1D4E9012138469047206A401C8E
:1008D0002062C01C206206E0206AFAE7D4E9012108
:1008E00015F8010B9047761EF8D22046AFF3008032
:1008F000BDE8F0814E414E006E616E00494E4600EB
:10090000696E66002DE9F047814616468AB0354883
:1009100078440DC88DE80D0032487844801C03AC43
:100920000DC884E80D0041F69B300844372190FB48
:10093000F1F290FBF1F5A5F1800501FB12041B3CDF
:1009400002D56442012000E00020DFF898A0804634
:100950000027FA44AAF1BE0A0EE0E0070AD03246A8
:10096000684607EB470101230AEB810103F013F905
:100970008DE8070064107F1C002CEED1194F7F44D6
:10098000AE3F19E0E80715D007EB04100DF1180A87
:1009900090E80E008AE80E00C068F04201D1981974
:1009A00008903246012306A903A803F0F4F803AB2C
:1009B00083E807006D10641C002DE3D14FF00103A4
:1009C00032466946B8F1000F03A802D003F0CEF812
:1009D00001E003F0E0F8C9E90001C9F808200AB015
:1009E000BDE8F0879C3900000048704718000020DF
:1009F0007546FFF7F9FFAE4605006946534620F0FD
:100A00000700854618B020B5FFF7EEFBBDE8204093
:100A10004FF000064FF000074FF000084FF0000BBA
:100A2000AC46ACE8C009ACE8C009ACE8C009ACE829
:100A3000C00921F007018D46704710B50446AFF399
:100A400000802046BDE81040FFF7BABB4FF0013CE4
:100A500050F8042B51F8043B9A4221D1A2EB0C032D
:100A6000934313EACC1317D150F8042B51F8043BED
:100A70009A4215D1A2EB0C03934313EACC130BD18A
:100A800050F8042B51F8043B9A4209D1A2EB0C0315
:100A9000934313EACC13DBD04FF00000704700BF44
:100AA000D01A01BAB1FA81F101F0180122FA01F06D
:100AB000CB40DBB2C0B2C01AC1F120012CFA01F365
:100AC000D11A914311EAC311E6D1704701491820A8
:100AD000ABBEFEE7260002007047000040F27C003B
:100AE000C2F2000000F0F6B9B0B5044600688168B3
:100AF000C90709D0816821F00101816000F058FD2B
:100B000021688968C90701D10020B0BD054602E00F
:100B10008068C007F8D000F04BFD411B2068032916
:100B2000F6D38168C907F3D0A06A40F01000A06234
:100B3000E06A40F00100E0620120B0BDB0B582B0D3
:100B400004460020019021688A68D2074BD188684A
:100B500040F00100886040F21000C2F2000000681E
:100B60004DF68361C4F21B31A0FB0101880C01909A
:100B70000198A0B1019801380190019878B10198CD
:100B800001380190019850B1019801380190019805
:100B900028B101980138019001980028EAD100F0AD
:100BA00007FD21688968C9071CD1054603E000BF1D
:100BB0008068C00716D100F0FBFC411B20680329A8
:100BC000F6D38168C907F3D1A06A40F01000A06293
:100BD000E06A40F00100E062002084F82400012077
:100BE00002B0B0BD002002B0B0BD0000FEE70000C2
:100BF0007047000070B582B004460020019094F860
:100C00002400012804D10225284602B070BD00BF8F
:100C1000012084F824002046FFF766FF2046FFF7F6
:100C20008DFF0546002867D1A06A41F20211884372
:100C30000230A06240F21000C2F2000006680220FA
:100C400000F072FDB6FBF0F0400001900198A0B1F9
:100C5000019801380190019878B10198013801900C
:100C6000019850B1019801380190019828B101987C
:100C70000138019001980028EAD12068816841F08C
:100C80000801816000F094FC21688A6812070DD485
:100C9000886840F00400886000F08AFC2168896858
:100CA000490713D401206FF0030121E0064602E05A
:100CB00088680007ECD500F07BFC801B21680B28BE
:100CC000F6D388680007F3D50EE000BF064602E0C1
:100CD00080684007E6D500F06BFC811B20680B297B
:100CE000F6D381684907F3D5012510206FF0120172
:100CF000A26A11400843A062002084F8240028461C
:100D000002B070BD7047000010B581B000220092A3
:100D100090F82420012A03D10221084601B010BD19
:100D20004B680122062B80F8242033D8D0F800C06D
:100D300003EB83035A1F1F23DCF834E003FA02F4A9
:100D40000B682EEA040403FA02F22243CCF83420A2
:100D5000092B03EB430249D9DCF80CE01E3A0724C7
:100D6000896894402EEA0404914023F00102214353
:100D7000102ACCF80C1043D142F20841C4F2010110
:100D8000A1F10802944543D0816A41F020018162BB
:100D9000012136E0D0F800C00C2B03EB830213D8FE
:100DA000233A1F23DCF830E003FA02F40B682EEA42
:100DB000040403FA02F22243CCF83020092B03EB9F
:100DC0004302C9D812E000BF413A1F23DCF82CE0EF
:100DD00003FA02F40B682EEA040403FA02F2224337
:100DE000CCF82C20092B03EB4302B5D8DCF81030EB
:100DF000072489689440A34391401943CCF810100C
:100E00000021002280F82420084601B010BD00BF58
:100E10000A681202F4D40A68102B42F400020A6035
:100E2000EED140F21001C2F2000109684DF6836272
:100E3000C4F21B32A1FB0212910C01EB81014900AB
:100E4000009100990029DBD00099013900910099A7
:100E50000029D5D000990139009100990029CFD0FF
:100E600000990139009100990029C9D000990139F0
:100E70000091009900294FF00001E5D1C1E7000081
:100E800010B540F27804C2F20004201D00F01EF8F4
:100E90002168411A322938BF10BD44F8040B03F011
:100EA0007FF84FF0665103F0F7F80021C4F2C82133
:100EB00003F0F2F840F200020146C2F200022046BE
:100EC0005160BDE8104000F069B900000068C06CD6
:100ED0007047000070B50446006805684668B106B2
:100EE00027D515F0020124D0A16AC90603D4A16A4E
:100EF00041F40071A162816801F46021B1F5602FB5
:100F000010D1217B71B9416821F020014160A06AB4
:100F100020F48070A062A06AC00403D4A06A40F0EC
:100F20000100A0622046FFF7ABFF20686FF01201BE
:100F30000160310633D515F0040130D0A16AC9062D
:100F400003D4A16A41F40051A162816801F4E04137
:100F5000B1F5E04F10D1416821F080014160A06AF5
:100F600020F48050A062A06AC00511D4A06A40F0AD
:100F70000100A0620CE000BF4168490508D4816807
:100F800001F46021B1F5602F02D1217B0029E2D06C
:100F90002046FFF7B7FE20686FF00C010160700675
:100FA0000ED515F0010008BF70BDA06A40F4803076
:100FB000A062204600F0B6F820686FF001010160E1
:100FC00070BD0000002804BF01207047B0B5044682
:100FD000806A28B121688868C0070CD115E000BF7D
:100FE0000020E06284F82400204600F09DF821688B
:100FF0008868C00709D0886820F00100886000F088
:10100000D7FA21688A68D20726D1A06AC0063AD4E6
:10101000A06A41F2021290430230A062E069D4E972
:10102000013240EA030C531EB3FA83F35D09134601
:10103000B2F5807F18BF2B02207D257B01284CEA6A
:10104000450030D135B3A56A45F02005A562E56AB3
:1010500045F00105E56226E0054602E08868C00724
:10106000D3D000F0A5FA401B21680328F6D3886886
:10107000C007F3D0A06A40F01000A062E06A40F020
:101080000100E062A06AA06A40F01000A0620120A6
:10109000B0BD00BFD4F818C04EF60005CFF6FF75FE
:1010A00005EB4C352B434D68B2F5807F25F469453F
:1010B00043EA05034B608B684FF2FD75CFF6E1758F
:1010C00003EA050343EA00038B6001D0012A07D13C
:1010D00022690023CFF6F07303EB025201E000BF58
:1010E0000022CB6A23F470031A43CA62896840F66F
:1010F000FE62CFF61F721140814207D10020E062EC
:10110000A16A012262F30101A162B0BDA06A40F0B0
:10111000100020F00200A062E06A40F00100E062EE
:101120000120B0BD7047000080B586B0014640F692
:101130000000C4F20100096800F5E05291424FF04E
:101140000001CDE9041101D006B080BD41F21801C3
:10115000C4F202010A6842F400720A600A6802F4EA
:1011600000720192019A0A6842F004020A6009685A
:1011700001F00401019101990121029103210391E0
:1011800002A900F007F912200021002200F090FAD5
:10119000122000F07BFA06B080BD000010B50446B6
:1011A00090F82400012804BF022010BD012084F81B
:1011B00024002046FFF7C2FC20B1002084F8240060
:1011C000012010BD42F2044C2068A16AC4F2010C57
:1011D00040F6017291430CF57F7201F580719042E7
:1011E000A16237D0A16A21F48011A162416849054A
:1011F00004D5A16A012363F30D31A162A16A002322
:10120000C9044FF0000144BFE16A21F00601E16228
:101210006FF0020184F824300160416841F0200140
:101220004160816801F46021B1F5602F06D19042E0
:101230000AD1DCF8001011F4702F05D0816841F458
:1012400080118160002010BD816841F4A00181609F
:10125000002010BDDCF8001011F4702FC2D0A16A7C
:1012600041F48011A162DCF800104905C1D4C5E742
:10127000014690F82100022816D10868D1E90FC371
:10128000026822F00E020260026822F0010202608F
:10129000012000FA03F2CCF8042081F8210000209C
:1012A000002281F82020704704208863012000225A
:1012B00081F820207047000090F82110022923D1E6
:1012C0000268116821F00E0111602F211368C4F229
:1012D00002018A4240F20401C4F2020123F0010338
:1012E000136015DD3023C4F202039A421CD044235C
:1012F000C4F202039A421BD05823C4F202039A425A
:101300001CD14FF4803321E0042181630120704718
:101310000823C4F202039A420ED01C23C4F2020333
:101320009A420BD1102311E04FF480730EE000BFFE
:101330004FF480530AE000BF012307E001F1680C7D
:101340004FF08073624508BF4FF480130B6001219A
:1013500080F82110426B002180F8201022B180B566
:1013600090470021BDE8804008467047B0B504466C
:1013700000F01EF9054640F20800C2F200000078B5
:10138000611C18BF044400BF00F012F9401BA042CA
:10139000FAD3B0BD2DE9F04F82B00E68002E00F0F8
:1013A000F58041F20002C4F20102032340F2004E34
:1013B000904208BF02234FF6FF7CC4F2010E009357
:1013C00000240123C1F2100C4FF0000B4FF0000974
:1013D0004BE000BF40F60042C4F20102009F904281
:1013E00008BF012704F00C030F229A402AEA0202E8
:1013F00007FA03F34FEA9B051A4346F825204E6887
:1014000040F20C45F202DEF8082054BF22EA08023E
:1014100042EA0802C4F20105CEF808202A68B302A5
:1014200054BF22EA080242EA08022A60B303DEF847
:10143000042054BF22EA080242EA0802F303CEF86D
:101440000420DEF800204FF0010354BF22EA080216
:1014500042EA0802CEF800200E680BF1010B36FAC2
:101460000BF204F1040400F0918003FA0BFA16EA7F
:101470000A08F1D04E68664512DC122E56D8DFE815
:1014800006F0350B45495555555555555555555546
:101490005555554D510000BFD1F80C9046E000BFA6
:1014A0004FF6FF72C1F2210296420FDC0022C1F218
:1014B000110296421AD00022C1F21202964215D0B1
:1014C0000022C1F22102964210D02FE00022C1F288
:1014D000220296420AD00022C1F23102964205D081
:1014E0000022C1F23202964220D100BF8A684AB17E
:1014F000012A14BFC0F814A0C0F810A04FF00809CA
:1015000014E000BF4FF0040910E000BFCA6802F108
:1015100008090BE04FF0000908E000BFCA6802F1BB
:10152000040903E0CA6802F10C0900BF224606461E
:10153000B8F5807F24BF203A043637680F259540E0
:1015400027EA050509FA02F22A433260CA79D2066F
:101550007FF582AF41F21803C4F202031A68AEF5B8
:101560007E7642F001021A601A6802F001020192CE
:10157000019A2BF0030256F802A040F60002C4F2D2
:10158000010290427FF426AF00272BE702B0BDE8AE
:10159000F08F0000C26802EA0103914341EA03416F
:1015A00001617047002A08BF09040161704700000B
:1015B00040F26010C2F200000068704740F208007C
:1015C00040F26011C2F20000C2F2000100780A6825
:1015D000104408607047000080B542F20000C4F279
:1015E0000200016841F010010160032000F08CF856
:1015F0000F2000F005F800F027F8002080BD000063
:1016000070B540F20806C2F2000640F210013278CE
:10161000C2F200014FF47A730968B3FBF2F2044698
:10162000B1FBF2F1084600F087FC0F2C4FF00105EA
:1016300008D838B94FF0FF3021460022002500F0CD
:1016400037F87460284670BD82B041F21800C4F2C9
:1016500002000168042241F001010160016801F00B
:10166000010101910199416841F080514160406858
:1016700000F08050009000980420C4F2010001683E
:1016800062F31A61016002B070470000002848BF91
:10169000704700F01F01012202FA01F11C2202EA48
:1016A000D0004EF20012CEF20002815070470000CE
:1016B00010B54EF60C5CCEF2000CDCF80030C3F333
:1016C000022E8EF00704042C28BF0424BEF103036D
:1016D0004FF0FF3E0EFA04F438BF0023A1439940B7
:1016E0000EFA03F39A43114300F00F0200F1604336
:1016F0000901043A03F564436244002848BF02F13B
:101700000C03197010BD00004EF60C51CEF2000112
:101710000A684FF6FF031A4060F30A2242F0806025
:1017200040F0FD700860704701280FD002282DD0CE
:10173000102808D141F20401C4F202010A6851F8EC
:10174000040CC00134D40020704700BF41F20400F3
:10175000C4F20200C16940F202320A40B2F5817F50
:1017600004BF4FF40040704701F44071B1F5407F71
:101770002AD0B1F5007F1CBF00207047006A49F6EF
:101780004041800701EAE070704700BF80B500F07B
:10179000BFF941F20401C4F2020109680222C1F357
:1017A000813102EB4101B0FBF1F0BDE880407047B0
:1017B000C2F3834015A3185CD2030DD440F6001287
:1017C000C0F23D02504313E050F8040C4FF22441A4
:1017D000800301EAE07070470A6810A3C2F3404238
:1017E0009A5C41F20023C0F27A03B3FBF2F2504359
:1017F0000968490248BF70474AF6AB214000CAF663
:10180000AA21A0FB01014808704700BF020304059C
:10181000060708090A0B0C0D0E0F1010010200003C
:101820002DE9F04182B00446007841F21C06C00761
:10183000C4F202064AD030685FEAC00808D43068B3
:1018400040F080503060306800F080500190019886
:1018500047F20007C4F200073868C00512D43868A0
:1018600040F480703860FFF7A3FE05463868C00575
:1018700008D4FFF79DFE401B6428F7D9032002B06F
:10188000BDE8F081706810F4407012D0616801F416
:10189000407188420DD0706840F24042C4F242224A
:1018A000012320F4407113600023C00713607160AE
:1018B00026D17068616820F440700843B8F1000FC9
:1018C000706003D4306820F0805030602068810759
:1018D00007D556F8181CA26821F44041114346F878
:1018E000181CC00607D556F8180CE16820F48000D3
:1018F000084346F8180C002002B0BDE8F08100BF94
:10190000FFF756FE054641F2883700BF7068800732
:10191000CFD4FFF74DFE401BB8424FF00300F5D97E
:10192000EAE70000002804BF012070472DE9F043DA
:1019300081B042F20008C4F202080446D8F8000060
:101940000D4600F0070088420CD2D8F8000020F0C5
:1019500007002843C8F80000D8F8000000F007008E
:10196000A8426CD1206841F204098107C4F202093F
:1019700017D5410705D5D9F8001041F4E061C9F841
:101980000010010705D5D9F8001041F46051C9F8DD
:101990000010D9F80010A26821F0F0011143C9F835
:1019A0000010C00742D1D8F8000000F00700A8429C
:1019B0000CD9D8F8000020F007002843C8F8000030
:1019C000D8F8000000F00700A84238D1206841078D
:1019D00007D5D9F80010E26821F4E0611143C9F895
:1019E0000010000708D5D9F80000216920F46050E4
:1019F00040EAC100C9F80000D9F8002002F00C004C
:101A0000082841F20020C0F27A0051D144F2E223CA
:101A1000C2F38341C0F60003595CD2033CD440F6C4
:101A20000010C0F23D00484342E000BF6068022859
:101A30000AD001282AD159F8041C890308D40120AE
:101A400001B0BDE8F08300BF59F8041C8901F6D548
:101A5000D9F8001021F003010843C9F80000FFF78E
:101A6000A7FD064641F28837D9F80000616800F00A
:101A70000C00B0EB810F96D0FFF79AFD801BB842A7
:101A8000F2D9032001B0BDE8F08300BF59F8041C6F
:101A90008907D4D5DCE700BFD9F8002044F2E02361
:101AA000C2F34042C0F600039A5C4843B0FBF2F038
:101AB000D9F8001044F2C822C1F30311C0F60002A5
:101AC000515C40F2100220FA01F140F20C00C2F227
:101AD00000000068C2F200021160FFF791FD0020D3
:101AE00001B0BDE8F083000040F2100041F20401B3
:101AF000C2F20000C4F202010068096844F2D82270
:101B0000C1F30221C0F60002515CC84070470000DA
:101B100040F2100041F20401C2F20000C4F20201DE
:101B20000068096844F2D822C1F3C221C0F600025D
:101B3000515CC84070470000002804BF0120704776
:101B40002DE9F04182B00446007841F20006C0075A
:101B5000C4F202060CD0706800F00C00042840F0BB
:101B600081803068800303D56068002800F04E81D2
:101B7000207880071BD5706810F00C0F09D07068B2
:101B800000F00C00082840F08B807068C00300F162
:101B900087803068800703D52069012840F03681AE
:101BA0003068616920F0F80040EAC10030602078B8
:101BB000000713D4207840072CD4E569002D00F0ED
:101BC0002081706800F00C00082840F0AF80012DE3
:101BD00040F00C81012002B0BDE8F081A06900282E
:101BE00000F08C800020C4F242200121C0F8801453
:101BF000FFF7DEFC054600BF706A800700F1BA807F
:101C0000FFF7D6FC401B0228F6D9032002B0BDE83E
:101C1000F08100BFF0695FEAC00808D4F06940F0C5
:101C20008050F061F06900F080500090009847F219
:101C30000007C4F200073868C0054DD4386840F486
:101C400080703860FFF7B4FC054600BF3868C005F7
:101C500042D4FFF7ADFC401B6428F7D9032002B043
:101C6000BDE8F081706800F00C00082803D17068AE
:101C7000C0033FF576AF6068002800F00981B0F539
:101C8000A02F00F01D81B0F5803F00F01D8130686D
:101C900020F480303060306820F4802017E100BFED
:101CA0002069002840F20000C4F2422000F08C803D
:101CB00001210160FFF77CFC054600BF306880070A
:101CC0003FF56EAFFFF774FC401B0228F6D90320E6
:101CD00002B0BDE8F08100BFE068002800F09A8003
:101CE000052800F0B180012800F0B280306A20F0B1
:101CF00001003062306A20F00400ACE00020C4F241
:101D000042200021C0F88014FFF752FC054600BFB6
:101D1000706A80077FF54EAFFFF74AFC401B022830
:101D2000F6D9032002B0BDE8F08100BF0027C4F25D
:101D3000422700203866FFF73BFC022D05460DD1F7
:101D40003068800140F1D680FFF732FC401B02284A
:101D50004FF00300F4D902B0BDE8F0813068800193
:101D60004FD5FFF725FC401B02284FF00300F5D9A3
:101D7000F1E700BF40F21000C2F20000006844F634
:101D8000D351C1F26201A0FB0101480A019000BFDA
:101D900000BF0198411E002801913FF40BAF00BF26
:101DA0000198411E002801913FF404AF00BF019843
:101DB000411E002801913FF4FDAE00BF0198411E75
:101DC00000280191E4D1F5E600210160FFF7F0FB66
:101DD000054600BF306880077FF5E9AEFFF7E8FBF6
:101DE000401B02284FF00300F4D9B4E77068216A61
:101DF00000F480328A4209D1616A00F4701088428E
:101E000004D1002002B0BDE8F08100BF012002B083
:101E1000BDE8F081306A20F001003062306A20F0C5
:101E200004003062FFF7C4FB054641F2883700BF6B
:101E3000306A800722D5FFF7BBFB401BB8424FF04A
:101E40000300F5D987E700BF306A40F00400306234
:101E5000306A40F001003062FFF7AAFB054641F20C
:101E6000883700BF306A800708D4FFF7A1FB401B0A
:101E7000B842F7D9032002B0BDE8F081B8F1000FF5
:101E80003FF59BAEF06920F08050F06195E600BF11
:101E9000306820F480303060306820F4802030607A
:101EA000FFF786FB054600BF306880037FF560AE14
:101EB000FFF77EFB401B64284FF00300F4D94AE78C
:101EC000306840F480203060306840F4803030600A
:101ED000FFF76EFB054600BF306880033FF548AE54
:101EE000FFF766FB401B6428F6D9032002B0BDE86B
:101EF000F08100BF206AB0F5803F05D17168A2680B
:101F000021F40031114371607168626A21F4741127
:101F100011430843706001203866FFF749FB04460F
:101F2000306880013FF56DAFFFF742FB001B0228D0
:101F30004FF00300F4D90EE7411E0020B0EB116F03
:101F40001CBF012070474EF21002CEF20002516019
:101F50004EF62351CEF20001F0230B700721906062
:101F600011607047704700007047000090F83C20F7
:101F7000012A4FF0020228D010B580F83D200268F7
:101F8000D2F804E0D2F808C00C682EF070032343A6
:101F9000B2F1804F53600BD042F60043C4F201030C
:101FA0009A4205D040F20043C4F200039A4204D1A1
:101FB00049682CF08003194391600121002280F8C8
:101FC0003D1080F83C20BDE81040104670470000EE
:101FD000002804BF0120704710B5044690F83D006A
:101FE00028B9002084F83C00204600F051F8022077
:101FF00084F83D00206842F6004C0268B0F1804F42
:10200000C4F2010C18BF604504D1A36822F070022D
:102010001A4305E040F20043C4F200039842F4D0B2
:10202000B0F1804F18BF604504D1236922F440729B
:102030001A4305E040F20043C4F200039842F4D092
:10204000A16922F08002D4F804E0E36811436045FE
:102050000160C362C0F828E002D16169CCF8301099
:1020600001214161002084F8461084F83E1084F874
:102070003F1084F8401084F8411084F8421084F82E
:10208000431084F8441084F8451084F83D1010BDC6
:102090000068B0F1804F18BF704780B582B041F240
:1020A0001C00C4F202000168002241F0010101603D
:1020B0000068002100F00100019001981C20FFF74A
:1020C000F7FA1C2002B0BDE88040FFF7DFBA00003D
:1020D00090F83D1001291CBF01207047022180F8B3
:1020E0003D100068C168B0F1804F41F00101C1604E
:1020F0000BD042F60041C4F20101884205D040F203
:102100000041C4F20001884206D1816801F0070154
:10211000062904BF00207047016841F001010160F9
:102120000020704790F83C20012A4FF0020200F096
:10213000C58080B580F83D20D0F800C04FF677729A
:10214000DCF8083023EA0202CCF808200B684F2B99
:1021500028DC1F2B44DD202B45D0302B43D0402BD7
:1021600040F0AE80D1F804E0C968DCF82030DCF83B
:10217000202022F00102CCF82020DCF8182022F0E8
:10218000F00242EA011123F00A0242EA0E02CCF800
:102190001810CCF82020DCF8081041F0470121F09D
:1021A000300180E06F2B27DDB3F5005F48D0B3F539
:1021B000805F7AD0702B40F08380D1E901E3C96859
:1021C000DCF8082043EA0E0322F47F4243EA0121AF
:1021D0001143CCF80810DCF8081041F0770162E0F8
:1021E0000BB1102B6CD1DCF8081021F070011943F1
:1021F00041F0070157E000BF502B35D0602B5FD175
:10220000D1F804E0C968DCF82030DCF8202022F0A6
:102210001002CCF82020DCF8182022F4704242EAA8
:10222000013123F0A00242EA0E12CCF81810CCF8CB
:102230002020DCF8081041F0670121F0100132E0A5
:10224000D1E901E3C968DCF8082043EA0E0322F46F
:102250007F4243EA01211143CCF80810DCF8081052
:1022600041F480411FE000BFD1F804E0C968DCF808
:102270002030DCF8202022F00102CCF82020DCF80D
:10228000182022F0F00242EA011123F00A0242EA89
:102290000E02CCF81810CCF82020DCF8081041F021
:1022A000570121F02001CCF808100022012180F80C
:1022B0003D10002180F83C10BDE88040104670477A
:1022C0000122F3E77047000010B501680446086971
:1022D000800744BFC8685FEA807039D40869400746
:1022E00044BFC8685FEA40703ED40869000744BF35
:1022F000C8685FEA007045D40869C00644BFC86872
:102300005FEAC0604AD40869C0071CBFC8685FEABA
:10231000C07051D10869000644BFC8685FEA006018
:1023200052D40869400644BFC8685FEA406053D48D
:102330000869800646BFC8685FEA806010BD6FF01C
:10234000200220460A61BDE81040FFF70DBE00BF25
:102350006FF002000861012020778869800743D070
:102360002046FFF7AFFF45E06FF004000861022050
:102370002077886910F4407F40D02046FFF7A2FF05
:1023800042E000BF6FF00800086104202077C869B0
:1023900080073DD02046FFF795FF3FE06FF010002B
:1023A000086108202077C86910F4407F3AD02046A1
:1023B000FFF788FF3CE000BF6FF001000861204696
:1023C00000F03EF82168A5E76FF080000861204624
:1023D000FFF7C8FD2168A4E76FF0400008612046C0
:1023E00000F06AF82168A3E7204600F025F82046AF
:1023F00000F024F82168002020776FE7204600F0E5
:102400001BF8204600F01AF82168002020776CE7BE
:10241000204600F011F8204600F010F82168002056
:10242000207769E7204600F007F8204600F006F81C
:1024300021680020207766E77047000070470000A1
:10244000B0B501F0ADF840F20000C2F200004468FF
:102450000021C4F22011204601F045FD002105466F
:102460000028C4F24821204618BF012501F050FD84
:10247000002818BF012028404FF4804040F25C152E
:1024800040F600441CBF48F20000CFF6FF70C2F2D5
:102490000005C4F2010428804FF4004120464FF0AB
:1024A000000218BF4FF48041FFF77CF829882046CE
:1024B000BDE8B040FFF76EB87047000070470000FD
:1024C00070470000B0B582B0044600680168C36878
:1024D000426901F02F05202D03F0200506D12DB112
:1024E000204602B0BDE8B04000F0B2BB5FEA017C1C
:1024F0001EBF02F0010E03F4907212EB0E0243D1E4
:10250000226BCD0618D5012A16D113F0100213D074
:10251000002101910168019141680191019940698F
:1025200040063BD4A08DE18DE28D002A18BF884281
:1025300040F0F28102B0B0BD0A0640F1E78013F02E
:10254000800200F0E38094F841102129F2D1A168C3
:10255000B1F5805F03D12169002900F06382216A0F
:102560004A1C226209784160E18C01390A04E18445
:10257000E0D1C16821F08001C160C16841F0400133
:10258000C16002B0B0BD00BFCA0718BF13F48072AB
:1025900040F0D0804A0700F1D380D8E0E06B0168BA
:1025A00049688AB2002AC5D0A38D9A42C2D2E18579
:1025B0008069202800F09E80206850E8030F216881
:1025C00020F4807041E80302DAB1206850E8030F7C
:1025D000216820F4807041E8030292B1206850E83D
:1025E000030F216820F4807041E803024AB120689B
:1025F00050E8030F216820F4807041E80302002AAC
:10260000DAD1206850E8050F216820F0010041E888
:102610000502C2B3206850E8050F216820F00100D0
:1026200041E805027AB3206850E8050F216820F0E0
:10263000010041E8050232B3206850E8050F216827
:1026400020F0010041E80502002ADAD11BE000BFBA
:10265000206850E8050F216820F0400041E805029D
:10266000DAB1206850E8050F216820F0400041E809
:10267000050292B1206850E8050F216820F0400063
:1026800041E805024AB1206850E8050F216820F0B2
:10269000400041E80502002ADAD1202084F84200F7
:1026A00000202063206850E8030F216820F010000C
:1026B00041E80302DAB1206850E8030F216820F0F6
:1026C000100041E8030292B1206850E8030F21682E
:1026D00020F0100041E803024AB1206850E8030FDF
:1026E000216820F0100041E80302002ADAD1E06BF3
:1026F000FEF7BEFD02206063A08DE18D401A81B21D
:10270000204602B0BDE8B040FFF7D8BE49067FF5CD
:1027100011AF13F040013FF40DAFC16821F040014B
:10272000C1602021204684F8411002B0BDE8B040CD
:1027300000F072BA626C42F0010262644A0706D588
:10274000BEF1000F03D0626C42F0020262648A079D
:1027500006D5BEF1000F03D0626C42F00402626441
:10276000BCF1000F06D55EEA050203D0626C42F0B0
:1027700008026264626C002A3FF4DCAE890604D56C
:102780001DB1204600F064FA20684069616C00F0D9
:10279000400001F00801401800F0B680206850E8C1
:1027A000030F216820F4907041E80302BAB3206857
:1027B00050E8030F216820F4907041E8030272B3DF
:1027C000206850E8030F216820F4907041E803026C
:1027D0002AB3206850E8030F216820F4907041E884
:1027E0000302002ADAD11AE0206850E8050F2168B8
:1027F00020F0010041E80502DAB1206850E8050F39
:10280000216820F0010041E8050292B1206850E8FB
:10281000050F216820F0010041E805024AB1206857
:1028200050E8050F216820F0010041E80502002A68
:10283000DAD1206B012824D1206850E8030F2168E9
:1028400020F0100041E80302DAB1206850E8030FDD
:10285000216820F0100041E8030292B1206850E89E
:10286000030F216820F0100041E803024AB12068FC
:1028700050E8030F216820F0100041E80302002A0D
:10288000DAD1202084F842000020206320684069CB
:10289000400640F1C180206850E8050F216820F013
:1028A000400041E80502DAB1206850E8050F2168D0
:1028B00020F0400041E8050292B1206850E8050F81
:1028C000216820F0400041E805024AB1206850E844
:1028D000050F216820F0400041E80502002ADAD106
:1028E000E06B002800F0988042F64541C0F60001F8
:1028F0004163FEF7E1FC00283FF41CAEE06B416B46
:1029000002B0BDE8B04008472046FFF7D9FD0020DF
:10291000606402B0B0BD00BF401A00BF216851E83A
:10292000031F226821F4907142E80313BBB32168AE
:1029300051E8031F226821F4907142E8031373B336
:10294000216851E8031F226821F4907142E80313C3
:102950002BB3216851E8031F226821F4907142E8EB
:102960000313002BDAD11AE0216851E8051F226811
:1029700021F0010142E80513DBB1216851E8051F90
:10298000226821F0010142E8051393B1216851E862
:10299000051F226821F0010142E805134BB12168AF
:1029A00051E8051F226821F0010142E80513002BC0
:1029B000DAD1202184F8421000212163216851E8F6
:1029C000031F226821F0100142E80313DBB12168E4
:1029D00051E8031F226821F0100142E8031393B16C
:1029E000216851E8031F226821F0100142E8031317
:1029F0004BB1216851E8031F226821F0100142E821
:102A00000313002BDAD1022281B22046626302B0A6
:102A1000BDE8B040FFF752BD204602B0BDE8B0406F
:102A2000FFF74EBD216A31F8022B6FF35F2242603F
:102A3000216299E5002804BF0120704710B50446C3
:102A400090F8410028B9002084F84000204600F0AA
:102A500063F8242084F841002068D4E90212C36896
:102A600023F40053C360036923F440531A43026103
:102A7000D4E904231143C268194341F20C639A4319
:102A80001143C1604169A26921F44071114343F6C9
:102A90000002C4F201029042416103D0FFF724F822
:102AA00002E000BFFFF734F8D4E9002319214843BE
:102AB0009900B0FBF1F048F21F5CC5F2EB1CA0FBE3
:102AC0000C314FF69C734909C0F6FF7301FB0300FC
:102AD000322303EB0010A0FB0C03F02000EA53109C
:102AE00000EB0110C3F343110844906010692021EA
:102AF00020F490401061506920F02A005061D068A5
:102B000040F40050D0600020606484F8411084F8E4
:102B10004210606310BD000070B586B040F600043E
:102B2000C4F20104006804F540510026884204966E
:102B300002D006B070BD00BF41F21800C4F202001E
:102B4000016802AD41F480410160016801F48041F7
:102B500001910199016841F0040101600068294672
:102B600000F00400019001984FF4007002900220E0
:102B70000390032005902046FEF70CFC4FF4806084
:102B8000CDE90206204629460496FEF703FC2520DF
:102B900001210022FEF78CFD2520FEF777FD06B00F
:102BA00070BD000090F84230202B07D100294FF073
:102BB000010318BF002A05D11846704702231846A2
:102BC000704700BF00230363816222218285C28592
:102BD000436480F842100169006819B1C16841F48A
:102BE0008071C160416941F001014161C16841F0FA
:102BF0002001C1601846704780B540F2F40040F2F1
:102C00000001C2F20000C2F200010122FFF7CAFF78
:102C1000BDE8804000F0C4BC70470000FEE7000043
:102C2000FEE70000FEE7000070470000704700006C
:102C3000FEF7C4BC7047000040F2AC00C2F20000D6
:102C4000FFF742BB406A0021C185C184FFF738BC51
:102C500081B090F84210222921D183680246B3F551
:102C6000805F09D152F8281F52F8183C002B63D01E
:102C700003685B680AE000BF52F8281F13B90369B4
:102C8000002BF5D003685B6803F07F030B701168BD
:102C900001311160C18D01390A04C18502D001B032
:102CA000704700BF0168CA6822F02002CA60CA6883
:102CB00022F48072CA604A6922F001024A6120212E
:102CC00080F8421000214163026B012A3CD101636C
:102CD000016851E8031F026821F0100142E8031364
:102CE000DBB1016851E8031F026821F0100142E8DE
:102CF000031393B1016851E8031F026821F010012A
:102D000042E803134BB1016851E8031F026821F048
:102D1000100142E80313002BDAD101680A68D206D9
:102D200006D5002200920A68009249680091009935
:102D3000818D01B0FFF7C2BB026852686FF35F225A
:102D400021F8022B8162A5E701B0FFF755BF000013
:102D500040F2F400C2F20000FFF7B4BBFEE700004F
:102D6000F0B540F61441C4F20101042008604FF4AC
:102D7000806C1022202040234FF0800EC1F800C04C
:102D80000A6008600B60C1F800E051F8084C4FF48D
:102D9000800544F4806441F8084C4FF4801441F8F5
:102DA000044C4FF400144FF4000641F8044C41F871
:102DB000045C41F8046CC1F800C00A6008600B6054
:102DC000C1F800E051F8087C47F4806741F8087CBE
:102DD00041F8042C41F8044C41F8045C41F8046CBF
:102DE000C1F800C00A6008600B600220C1F800E072
:102DF000BDE8F040FEF7BABA012805D0022818BF96
:102E00007047BF2001E000BF7F2070B5014440F64D
:102E10001440C4F20100042202604FF4806C4FF0B1
:102E2000100E202240238024C0F800C0C0F800E02B
:102E300002600360046050F8085C4EB245F480659F
:102E400040F8085CCD064FF0100558BF4FF48015D0
:102E500040F8045C8D064FF0200558BF4FF4001574
:102E600040F8045C4D064FF0400558BF4FF4800514
:102E700040F8045C8025B6F1FF3FC8BF4FF4000561
:102E800040F8045CC0F800C0C0F800E002600360D5
:102E9000046050F8085C45F4806540F8085CCD0794
:102EA0004FF0100508BF4FF4801540F8045C8D0703
:102EB0004FF0200558BF4FF4001540F8045C4D0753
:102EC0004FF0400558BF4FF4800509074FF08001CF
:102ED00040F8045C58BF4FF4000140F8041CC0F8EF
:102EE00000C0C0F800E0026003600460BDE870400C
:102EF000704700002DE9F04F81B08246FA20009221
:102F00008946FEF733FA40F61447C4F2010704205D
:102F10004FF4806B102520244FF040088026386045
:102F2000C7F800B03D603C60C7F800803E6057F8CD
:102F3000080C4FF4801340F4806047F8080C4FF4FD
:102F4000801047F8040C4FF4001047F8040C4FF4BD
:102F5000800047F8040C4FF4000047F8040CC7F851
:102F600000B03D603C60C7F800803E6057F8080C38
:102F70004FF4800240F480604FF4000147F8080CE1
:102F8000322047F8043C47F8044C47F8042C47F833
:102F9000041CC7F800B03D603C60C7F800803E608C
:102FA000FEF7E4F900994AEA090008430421396070
:102FB000C7F800B03D603C60C7F800803E6057F83D
:102FC000081C40F0200041F4806147F8081CC1064D
:102FD0004FF0100158BF4FF4801147F8041C410610
:102FE0004FF0400147F8044C58BF4FF4800142B203
:102FF00047F8041C8021B2F1FF3FC8BF4FF4000125
:1030000047F8041CC7F800B03D603C60C7F800807A
:103010003E6057F8081C41F4806147F8081CC1075E
:103020004FF0100108BF4FF4801147F8041C8107CE
:103030004FF0200158BF4FF4001147F8041C41071E
:103040004FF0400158BF4FF4800100074FF080005F
:1030500047F8041C58BF4FF4000047F8040C322016
:10306000C7F800B03D603C60C7F800803E60FEF7E6
:103070007DF904203860C7F800B03D603C60C7F8B7
:1030800000803E6057F8080C4FF4801240F48060D6
:1030900047F8080C4FF400104FF4800A4FF4000179
:1030A00047F8042C47F8040C47F804AC47F8041C14
:1030B000C7F800B03D603C60C7F800803E6057F83C
:1030C000080C4FF4801940F4806047F8080C322057
:1030D00047F8042C47F8044C47F8048C47F8041CC4
:1030E000C7F800B03D603C60C7F800803E60FEF766
:1030F0003DF904203860C7F800B03D603C60C7F877
:1031000000803E6057F8080C40F4806047F8080CD7
:103110004FF4001047F8049C47F8040C4FF40000EB
:1031200047F804AC47F8040CC7F800B03D603C60B9
:10313000C7F800803E6057F8080C4FF4800A40F44E
:10314000806047F8080C322047F8049C47F8044C8C
:1031500047F8048C47F8046CC7F800B03D603C6049
:10316000C7F800803E60FEF701F904203860C7F818
:1031700000B03D603C60C7F800803E6057F8080C26
:103180004FF4801240F4806047F8080C4FF40011AF
:103190004FF4000047F8042C47F8041C47F804AC2F
:1031A00047F8040CC7F800B03D603C60C7F80080E9
:1031B0003E6057F8080C4FF4801A40F4806047F8DE
:1031C000080C322047F8042C47F8041C4FF400196F
:1031D00047F8048C47F8046CC7F800B03D603C60C9
:1031E000C7F800803E60FEF7C1F804203860C7F8D9
:1031F00000B03D603C60C7F800803E6057F8080CA6
:103200004FF4800140F480604FF4000247F8080C4E
:1032100047F804AC47F8049C47F8041C47F8042C12
:10322000C7F800B03D603C60C7F800803E6057F8CA
:10323000080C40F4806047F8080C47F8045C47F835
:10324000049C47F8041C47F8042CC7F800B03D6004
:103250003C60C7F8008064203E6001B0BDE8F04FDC
:10326000FEF784B80278002A08BF704770B540F6B0
:103270001441C4F2010101384FF4806C4FF0100E7C
:1032800020234024802500BF51F8086C46F0040636
:1032900041F8086CC1F800C0C1F800E00B600C6098
:1032A0000D6051F8086C46F4806641F8086CD6064B
:1032B0004FF0100658BF4FF4801641F8046C960684
:1032C0004FF0200658BF4FF4001641F8046C560624
:1032D0004FF0400658BF4FF4800641F8046C56B2D8
:1032E000B6F1FF3F4FF08006C8BF4FF4000641F82B
:1032F000046CC1F800C0C1F800E00B600C600D6008
:1033000051F8086C46F4806641F8086CD6074FF017
:10331000100608BF4FF4801641F8046C96074FF072
:10332000200658BF4FF4001641F8046C56074FF0C2
:10333000400658BF4FF4800612074FF0800241F854
:10334000046C58BF4FF4000241F8042CC1F800C0CF
:10335000C1F800E00B600C600D6082780130002A3B
:1033600092D1BDE87040704710B51446FFF744FD98
:103370002046BDE81040FFF775BF000094B0FEF78F
:103380002BF90AAC201D2421FCF7DBFF02200A9058
:1033900001200E90102000250F9020460395CDE9C6
:1033A00001551195FEF7C8FB20B1EFF3108072B6FE
:1033B000FEE700BF0F20CDE9040504A80021CDE9F8
:1033C00006550895FEF7AEFA20B1EFF3108072B6FD
:1033D000FEE700BF02260025684600960295FEF72C
:1033E0001FFA28B1EFF3108072B600BFFEE700BFEE
:1033F00041F21800C4F20200016840F6004441F0B6
:10340000200101600168C4F2010401F020010A9169
:103410000A990168002241F00401016001684CF240
:10342000F44701F004010A910A99016841F008018A
:10343000016000684CF2F44100F008000A900A981C
:103440002046FEF7AFF80A9701270AA92046CDE9E2
:103450000B750D96FDF79EFF40F2F40004F5305118
:10346000C2F200000C234FF4165280E82600C0E997
:103470000355C0E90535C561FFF7DCFA20B1EFF36C
:10348000108072B6FEE700BF40F27805C2F2000578
:1034900004F5C051284640F8041F00244FF4602171
:1034A00004730475C161C0E901440761FDF78AFD39
:1034B00020B1EFF3108072B6FEE700BF01200A943E
:1034C000CDE90B042C1D0AA92046FDF71DFC28B1EF
:1034D000EFF3108072B600BFFEE700BF4FF08042EE
:1034E0002846002140F8342F0F224CF24F330D9123
:1034F000CDE90B11CDE90411C0E90121C0E9033187
:103500008161FEF765FD28B1EFF3108072B600BF50
:10351000FEE700BF4FF4805034350A900AA92846D0
:10352000FEF700FE20B1EFF3108072B6FEE700BF99
:1035300004A92846FEF71AFD20B1EFF3108072B6F9
:10354000FEE700BF002000210822FFF7D3FC12A2F3
:1035500001200121FFF708FF4FF47A70FDF706FF05
:10356000FFF7FEFB2046FDF745FB2846FEF7B0FDC2
:1035700040F2F405C2F200052846FFF75BFA40F27C
:103580000001C2F2000128460122FFF70BFB00BF39
:103590002046FDF703FEFBE7202E2E2E0000000044
:1035A000B0B540F20005C2F20005287877281FD098
:1035B0006D2818BFB0BD44F2F224C0F6000401200B
:1035C00001212246FFF7D0FE022001212246FFF70B
:1035D000CBFE686800F04EFC024640F23C100B4601
:1035E000C2F200001DA1FCF711FE1EA21EE000BFEA
:1035F00044F2F224C0F60004012001212246FFF724
:10360000B3FE022001212246FFF7AEFE40F23C103D
:1036100047F26C51C2F20000C0F26501C0F803101D
:1036200047F22061C6F6614107A201600120012135
:10363000FFF79AFE40F23C12C2F200020220012182
:10364000BDE8B040FFF790BE20576174657220540A
:10365000616E6B2825293A200000000020252E32BB
:1036600066000000204D6F69737475726528252906
:10367000200000005FEA400C08BF91F0000F4FEA05
:103680008C234FEAC12243EA51514FEA1C5018BF24
:1036900000F5F0404FEA300018BF41F000415FEA0A
:1036A0006C5C00F02980BCF1FF3F08BF40F0804017
:1036B0007047130C06BF12044FF0100C4FF0000CB3
:1036C000130E04BF12020CF1080C130F04BF1201F9
:1036D0000CF1040C930F04BF92000CF1020CD30FF9
:1036E00004BF52000CF1010C11464FF00002A0F192
:1036F0001F00A0EB0C00704711F0004F08BF70478F
:1037000031F000413FF4D5AF0B0C06BF09044FF078
:10371000100C4FF0000C0B0E04BF09020CF1080C4A
:103720000B0F04BF09010CF1040C8B0F04BF8900BF
:103730000CF1020CCB0F04BF49000CF1010CCCF1D1
:10374000200322FA03F341EA030102FA0CF2A0EB90
:103750000C0000F10100704723F07F4720F07F4C00
:1037600080EA030000F00040ACEB070303F57C5354
:1037700003F1FF032DE9804909B44FEA144324EA19
:1037800003484FEA154B25EA0B4E0FF2042606EBD1
:1037900013273E7803FB0667C7F5000707FB06F60D
:1037A0004FEAD64606F102064FEA543707FB066C8D
:1037B000CCF1005C4FEA1C472CEA074C0CFB06F5E9
:1037C00007FB06F404EB15464FEA961649085FEA34
:1037D000320234BF00204FF000404FEAD13706FBE1
:1037E00007FC4FEA1C4C0CFB0BF7D21B03FB0CF73E
:1037F00061EB07010CFB0EF7B0EB074072EB1742D1
:103800000CFB08F734BFA2EB0742B2EB074261EBB7
:1038100017414FEA0C444FEA910706FB07FC4FEAB9
:103820001C4C0CFB0BF7B0EBC74072EB573203FBA1
:103830000CF734BFA2EBC742B2EBC74261EB573182
:103840000CFB0EF7B0EBC70072EB57720CFB08F7DE
:1038500034BFA2EBC702B2EBC70261EB57714FEA6C
:10386000816141EA92114FEA826242EA90124FEA84
:10387000806004EBCC04039F4FEAD13706FB07FCC2
:103880004FEA1C4C0CFB0BF7D21B03FB0CF761EB54
:1038900007010CFB0EF7B0EB074072EB17420CFB75
:1038A00008F734BFA2EB0742B2EB074261EB1741C6
:1038B0004FEA8C5504EB9C244FEA910706FB07FC6A
:1038C0004FEA1C4C0CFB0BF7B0EBC74072EB5732C6
:1038D00003FB0CF734BFA2EBC742B2EBC74261EB6C
:1038E00057310CFB0EF7B0EBC70072EB57720CFBB5
:1038F00008F734BFA2EBC702B2EBC70261EB577106
:103900004FEA816141EA92114FEA826242EA9012E3
:103910004FEA806015EB4C2544F100044FEAD137A3
:1039200006FB07FC4FEA1C4C0CFB0BF7D21B03FBFE
:103930000CF761EB07010CFB0EF7B0EB074072EBE5
:1039400017420CFB08F734BFA2EB0742B2EB074269
:1039500061EB17414FEA813141EA92414FEA8232ED
:1039600042EA90424FEA80304FEA0C7615EB1C1584
:1039700044F1000448EA03434EEA0B484FF0000EBE
:10398000B2EB080C71EB030724BF624639464EEBDD
:103990000E0E4FF0000B0018524149414BEB0B0B40
:1039A000B2EB080C71EB03077BF1000B24BF6246FE
:1039B00039464EEB0E0E4FF0000B001852414941B4
:1039C0004BEB0B0BB2EB080C71EB03077BF1000B1D
:1039D00024BF624639464EEB0E0E51EA020718BF6D
:1039E00046F0010616EB0E7655F1000254F1000187
:1039F00003D5BDE88901BDE80088BDE88901BDE8BF
:103A00000048B619524141EB0101A3F1010370478F
:103A100080807F7E7D7C7B7A79787776767574730B
:103A2000727171706F6E6E6D6C6C6B6A6A696868CA
:103A3000676666656464636362616160605F5F5E60
:103A40005E5D5D5C5C5B5B5A5A59595858575756D6
:103A5000565555555454535352525251515050503B
:103A60004F4F4F4E4E4D4D4D4C4C4C4B4B4B4A4A8D
:103A70004A494949484848474747474646464545D1
:103A8000454444444443434343424242424141410A
:103A90009C46002B30D477002BD04FEA37071CB55B
:103AA00003B44FF010004FF01001BAF1000F06D030
:103AB000BCF1000FDCBF40F0080040F008014FF0FF
:103AC00000000FBCBDE810400BF1010BBBF1010F72
:103AD00008BF5FEA170722BF12F1010211F10101CD
:103AE0004FF0004143F1000300F0004043EA0000C2
:103AF0007047F9D35708D0E746EA06464FEA16461C
:103B000013F1400F1FDD13F1200FDFBF16430A46EC
:103B1000002120335B42BED0C3F1200746EA0646AF
:103B20004FEA164602FA07F746EA070622FA03F2B8
:103B3000C3F1200701FA07F742EA070221FA03F16D
:103B40004FF00003A7E746EA020646EA06464FEAB8
:103B5000164646EA0106BCBF46EA0646360C4FF05A
:103B600000034FF000024FF0000194E72DE9804C74
:103B700070B49A46934691E8380007C831EA400C81
:103B800048BF34EA430C03D5FFF7E6FDFFF780FF9B
:103B9000F0BCBDE8008C2DE9804C70B49A46934689
:103BA00091E8380007C810F0804F08BF13F0804F2D
:103BB00003D100F005F8FFF76BFFF0BCBDE8008C07
:103BC00020F07F4723F07F4C80EA030000F00040A4
:103BD00007EB0C03A3F57C53A3F1FE0392F0000F57
:103BE00000F0B38095F0000F00F077802DE90149D7
:103BF0004FEA114021EA00484FEA144624EA0647FA
:103C000000FB06FC08FB06F607FB08F818EB064865
:103C10004CEB164C00FB07F718EB07484CEB174032
:103C20004FEA124B22EA0B4E4FEA154625EA0647A9
:103C30000BFB06FC0EFB06F607FB0EFE1EEB064E0C
:103C40004CEB164C0BFB07F71EEB074E4CEB174BE0
:103C500018EB0B0840F1000018EB0E0B58EB0008B6
:103C600040F100008F1A4FF000014FF000063CBFFA
:103C7000C943661B14BFB5EB040C00213CBFC9430C
:103C8000F61B4FEA174427EA04454FEA1C472CEA83
:103C9000074C04FB076205FB07F70CFB05F616EB68
:103CA000074642EB174204FB0CFC16EB0C4642EBBA
:103CB0001C421BEB060658EB020241414EEA8E0EF7
:103CC00046EA9E0601D5BDE80189B619524141EB8D
:103CD0000101A3F10103BDE801894FEA144524EA7B
:103CE00005464FEA114721EA074C05FB07F406FB9E
:103CF00007F70CFB06F111EB074144EB174405FBFA
:103D00000CFC11EB0C4144EB1C444FEA124722EA35
:103D1000074C05FB07F206FB07F70CFB06F616EB54
:103D2000074642EB174205FB0CFC16EB0C4642EB38
:103D30001C456A1854F1000148BF7047B61952413A
:103D400041EB0101A3F10103704795F0000F37D05B
:103D50004FEA114221EA02464FEA144724EA074C8F
:103D600002FB07F106FB07F70CFB06F414EB074414
:103D700041EB174102FB0CFC14EB0C4441EB1C41E2
:103D80004FEA154725EA074C02FB07F506FB07F744
:103D90000CFB06F616EB074645EB174502FB0CFC41
:103DA00016EB0C4645EB1C42121951F1000148BFBD
:103DB0007047B619524141EB0101A3F1010370476D
:103DC0004FEA144524EA05464FEA114721EA074C19
:103DD00005FB07F106FB07F70CFB06F212EB0742A7
:103DE00041EB174105FB0CFC12EB0C4251EB1C4163
:103DF0004FF0000648BF7047921841EB0101A3F154
:103E000001037047490050EAC12018BF04204A0D41
:103E100018BF40F0010040F2FF72B2EB515F08BFE3
:103E200040F00200012808BF0520704730380A28FA
:103E300001D20120704700207047000010B5002912
:103E40000AD00878002807D005487844FCF7FEFD22
:103E5000002801D0002010BD0248784410BD0000A9
:103E6000EA040000E20400000808A0F500114FEA8F
:103E70003101704743004FEAD30C4FEA3C0C4340FA
:103E80001FBF40070CF1605113F0FE4F70471CF04C
:103E9000006F03D10CF00041002070470CF000438C
:103EA00043EA507040EACC0010B500F076F900BF4C
:103EB000000000924FEA0001FFF7D6BF4FF000412B
:103EC000A1F500214FF00000704710B500F034F864
:103ED0000CBF0120002010BD10B500F02DF814BF5C
:103EE0000120002010BD10B500F06EF88CBF01203D
:103EF000002010BD10B500F067F82CBF0120002095
:103F000010BD10B500F094F894BF0120002010BD42
:103F100010B500F08DF834BF0120002010BD401016
:103F200058BFC0F14040491058BFC1F140418142E3
:103F3000EFF300807047000050EA010C00F113809D
:103F40001CF5000F58BFBCF5000F01D48842704724
:103F500007D710F5000F58BF11F5000F15D4884290
:103F60007047894270471CF5000F04D5BCF5000F5F
:103F7000F7D5814270474FF0807C1CEB400F38BF73
:103F80001CEB410F01D28142704710B500F005F9DA
:103F9000922449004FF000504FF08051FFF7BFBF0F
:103FA000B0FA80F310FA03F2C3F19D030AD0D905E9
:103FB00001EB1220530638BF704700F1010008BF23
:103FC00020F001007047000050EA010C00F113805E
:103FD0001CF5000F58BFBCF5000F01D48842704794
:103FE00007D710F5000F58BF11F5000F15D4884200
:103FF0007047894270471CF5000F04D5BCF5000FCF
:10400000F7D5814270474FF0807C1CEB400F38BFE2
:104010001CEB410F01D28142704710B500F0BDF892
:10402000922449004FF080504FF00051FFF777BFC6
:1040300050EA010C00F113801CF5000F58BFBCF5CD
:10404000000F01D48842704707D710F5000F58BF02
:1040500011F5000F15D488427047894270471CF54E
:10406000000F04D5BCF5000FF7D5814270474FF023
:10407000807C1CEB400F38BF1CEB410F01D281420A
:10408000704710B500F089F8922449004FF00050B5
:104090004FF08051FFF743BF4FF47F0C1CEAD01262
:1040A0001EBF1CEAD11392EA0C0F93EA0C0F00F02A
:1040B000478090EA010F48BF42F480724FF0004CF5
:1040C0004CEA00204CEA012102EB0302A0FB0113A1
:1040D000A2F50002002918BF43F001035B0028BFCE
:1040E0004FEA330342EB22425FEA132C4CEBC250FF
:1040F0002EBFBCEB436FB2F57C0F70474FEA036CE9
:10410000BCF1004F08BF20F00100B2F57C0F38BFB2
:1041100070470BD582F0FF0212F5803FC8BF704791
:1041200000F1C040D8BF00F00040704700F5000C1F
:104130005FEA4C0C48BF7047B0F1C04000F073B864
:104140000CEAD11390EA010F48BF42F48072624535
:1041500038BF634504D280EA010000F00040704798
:1041600010B500F01AF800BF8900013E00F007B852
:1041700000F009B85FEA410C5FEA1C6C08D080EAE5
:10418000010000F050B85FEA400C5FEA1C6CF6D109
:104190004FF00040A0F5800070470EF1020E2EF0A7
:1041A000030E5EF8044B244204D44FEA4102B2F1FC
:1041B0007F4F11D84FEA4003B3F17F4F0CD80ED197
:1041C0004FEAD07C0CEB4C0C0CF1020CB2F17F4F9F
:1041D00008BF4CEBD17C04E04FF0080C01E04FEA43
:1041E000D17C0CEB4C0324FA03F404F00704B4F183
:1041F000040C06D20EEB840CBDE810404CF0010C10
:104200006047DFE80CF0070802024FF00040A0F51D
:10421000800010BD0846420018BFD2F1807288BFEE
:1042200000F0004010BDFF2141EAD050C0057047AA
:10423000FCF789B902400000000000A00000000067
:1042400005400000000000C8000000000C40000015
:104250000000409C00000000194000000020BCBE8F
:104260000000000034400000BFC91B8E00000004A5
:10427000B5400000504BCFD06607E2CF01000000F0
:104280006C4100003E8251AADFEEA734010000001D
:10429000D9420000DCB5A0E23A301F97FFFFFFFFD4
:1042A000B4450000FD25A0C8E9A3C14FFFFFFFFFF3
:1042B000FF3F00000000008000000000FF3F000002
:1042C000000000800000000000000000000000006E
:1042D00001020304060708090000000001020304AC
:1042E000010202030405060708090A0B0C0D0E0F54
:1042F00010102020202020202020202020202020DE
:10430000202020202020202020002076616C756550
:1043100000000000504300080000002018000000CA
:1043200050010008684300081800002050070000F2
:10433000700100081C00000043000000F8FFFFFFB0
:104340000C0000000E0000000F0000002E00000016
:104350006D00000000004842010000001000000055
:084360000024F400000000003D
:04000005080000ED02
:00000001FF
